{
  "contractName": "Insurance",
  "abi": [
    {
      "inputs": [],
      "payable": false,
      "stateMutability": "nonpayable",
      "type": "constructor"
    },
    {
      "constant": true,
      "inputs": [],
      "name": "owner",
      "outputs": [
        {
          "internalType": "address",
          "name": "",
          "type": "address"
        }
      ],
      "payable": false,
      "stateMutability": "view",
      "type": "function"
    },
    {
      "constant": false,
      "inputs": [
        {
          "internalType": "address",
          "name": "newOwner",
          "type": "address"
        }
      ],
      "name": "transferOwnership",
      "outputs": [],
      "payable": false,
      "stateMutability": "nonpayable",
      "type": "function"
    },
    {
      "constant": false,
      "inputs": [
        {
          "internalType": "string",
          "name": "flightInfo",
          "type": "string"
        },
        {
          "internalType": "string",
          "name": "time",
          "type": "string"
        },
        {
          "internalType": "string",
          "name": "number",
          "type": "string"
        }
      ],
      "name": "saveinfo",
      "outputs": [],
      "payable": false,
      "stateMutability": "nonpayable",
      "type": "function"
    },
    {
      "constant": false,
      "inputs": [],
      "name": "deleteinfo",
      "outputs": [],
      "payable": false,
      "stateMutability": "nonpayable",
      "type": "function"
    },
    {
      "constant": true,
      "inputs": [],
      "name": "selectAll",
      "outputs": [
        {
          "internalType": "string",
          "name": "flightInfo",
          "type": "string"
        },
        {
          "internalType": "string",
          "name": "time",
          "type": "string"
        },
        {
          "internalType": "string",
          "name": "number",
          "type": "string"
        },
        {
          "internalType": "uint8",
          "name": "status",
          "type": "uint8"
        },
        {
          "internalType": "uint256",
          "name": "id",
          "type": "uint256"
        }
      ],
      "payable": false,
      "stateMutability": "view",
      "type": "function"
    },
    {
      "constant": false,
      "inputs": [],
      "name": "update",
      "outputs": [],
      "payable": false,
      "stateMutability": "nonpayable",
      "type": "function"
    }
  ],
  "bytecode": "0x608060405234801561001057600080fd5b50336000806101000a81548173ffffffffffffffffffffffffffffffffffffffff021916908373ffffffffffffffffffffffffffffffffffffffff160217905550610abc806100606000396000f3fe608060405234801561001057600080fd5b50600436106100625760003560e01c8063317e52aa14610067578063857cb0eb146102505780638da5cb5b146103bf578063a2e6204514610409578063a3337bec14610413578063f2fde38b1461041d575b600080fd5b61024e6004803603606081101561007d57600080fd5b810190808035906020019064010000000081111561009a57600080fd5b8201836020820111156100ac57600080fd5b803590602001918460018302840111640100000000831117156100ce57600080fd5b91908080601f016020809104026020016040519081016040528093929190818152602001838380828437600081840152601f19601f8201169050808301925050505050505091929192908035906020019064010000000081111561013157600080fd5b82018360208201111561014357600080fd5b8035906020019184600183028401116401000000008311171561016557600080fd5b91908080601f016020809104026020016040519081016040528093929190818152602001838380828437600081840152601f19601f820116905080830192505050505050509192919290803590602001906401000000008111156101c857600080fd5b8201836020820111156101da57600080fd5b803590602001918460018302840111640100000000831117156101fc57600080fd5b91908080601f016020809104026020016040519081016040528093929190818152602001838380828437600081840152601f19601f820116905080830192505050505050509192919290505050610461565b005b610258610516565b604051808060200180602001806020018660ff1660ff168152602001858152602001848103845289818151815260200191508051906020019080838360005b838110156102b2578082015181840152602081019050610297565b50505050905090810190601f1680156102df5780820380516001836020036101000a031916815260200191505b50848103835288818151815260200191508051906020019080838360005b838110156103185780820151818401526020810190506102fd565b50505050905090810190601f1680156103455780820380516001836020036101000a031916815260200191505b50848103825287818151815260200191508051906020019080838360005b8381101561037e578082015181840152602081019050610363565b50505050905090810190601f1680156103ab5780820380516001836020036101000a031916815260200191505b509850505050505050505060405180910390f35b6103c7610771565b604051808273ffffffffffffffffffffffffffffffffffffffff1673ffffffffffffffffffffffffffffffffffffffff16815260200191505060405180910390f35b610411610796565b005b61041b6107c8565b005b61045f6004803603602081101561043357600080fd5b81019080803573ffffffffffffffffffffffffffffffffffffffff1690602001909291905050506108a8565b005b8260016000808152602001908152602001600020600001908051906020019061048b9291906109e2565b50816001600080815260200190815260200160002060010190805190602001906104b69291906109e2565b50806001600080815260200190815260200160002060020190805190602001906104e19291906109e2565b50600180600080815260200190815260200160002060030160006101000a81548160ff021916908360ff160217905550505050565b6060806060600080600160008081526020019081526020016000206000018054600181600116156101000203166002900480601f0160208091040260200160405190810160405280929190818152602001828054600181600116156101000203166002900480156105c85780601f1061059d576101008083540402835291602001916105c8565b820191906000526020600020905b8154815290600101906020018083116105ab57829003601f168201915b50505050509450600160008081526020019081526020016000206001018054600181600116156101000203166002900480601f0160208091040260200160405190810160405280929190818152602001828054600181600116156101000203166002900480156106795780601f1061064e57610100808354040283529160200191610679565b820191906000526020600020905b81548152906001019060200180831161065c57829003601f168201915b50505050509350600160008081526020019081526020016000206002018054600181600116156101000203166002900480601f01602080910402602001604051908101604052809291908181526020018280546001816001161561010002031660029004801561072a5780601f106106ff5761010080835404028352916020019161072a565b820191906000526020600020905b81548152906001019060200180831161070d57829003601f168201915b505050505092506001600080815260200190815260200160002060030160009054906101000a900460ff169150600090508484848484945094509450945094509091929394565b6000809054906101000a900473ffffffffffffffffffffffffffffffffffffffff1681565b60026001600080815260200190815260200160002060030160006101000a81548160ff021916908360ff160217905550565b604051806020016040528060008152506001600080815260200190815260200160002060000190805190602001906108019291906109e2565b506040518060200160405280600081525060016000808152602001908152602001600020600101908051906020019061083b9291906109e2565b50604051806020016040528060008152506001600080815260200190815260200160002060020190805190602001906108759291906109e2565b5060006001600080815260200190815260200160002060030160006101000a81548160ff021916908360ff160217905550565b6000809054906101000a900473ffffffffffffffffffffffffffffffffffffffff1673ffffffffffffffffffffffffffffffffffffffff163373ffffffffffffffffffffffffffffffffffffffff161461096a576040517f08c379a00000000000000000000000000000000000000000000000000000000081526004018080602001828103825260188152602001807f73656e646572206973206e6f7420617574686f72697a6564000000000000000081525060200191505060405180910390fd5b600073ffffffffffffffffffffffffffffffffffffffff168173ffffffffffffffffffffffffffffffffffffffff16146109df57806000806101000a81548173ffffffffffffffffffffffffffffffffffffffff021916908373ffffffffffffffffffffffffffffffffffffffff1602179055505b50565b828054600181600116156101000203166002900490600052602060002090601f016020900481019282601f10610a2357805160ff1916838001178555610a51565b82800160010185558215610a51579182015b82811115610a50578251825591602001919060010190610a35565b5b509050610a5e9190610a62565b5090565b610a8491905b80821115610a80576000816000905550600101610a68565b5090565b9056fea265627a7a72315820dc4c741e5134f6bdde82b5ef9ec913622cb5dfe4245363f6fbcb6fe82426b76b64736f6c63430005100032",
  "source": "pragma solidity >=0.4.21 <0.6.0;\n \n/**\n * owned是合约的管理者\n */\ncontract owned {\n    address public owner;\n \n    /**\n     * 初台化构造函数\n     */\n    constructor() public {\n        owner = msg.sender;\n    }\n \n    /**\n     * 判断当前合约调用者是否是合约的所有者\n     */\n    modifier onlyOwner {\n        require( msg.sender == owner,\n        \"sender is not authorized\");\n        _;\n    }\n \n    /**\n     * 合约的所有者指派一个新的管理员\n     * @param  newOwner address 新的管理员帐户地址\n     */\n    function transferOwnership(address newOwner) public onlyOwner{\n        if (newOwner != address(0)) {\n            owner = newOwner;\n        }\n    }\n}\n\ncontract Insurance is owned{\n\n    //属性\n    struct Comminfo {\n        string flightInfo;//航班信息\n        string time;    //起保时间\n        string number;  //保单好吗\n        uint8  status;  //1是待审核，2是用过\n    }\n\n    //记录所有数据映射\n    mapping (uint => Comminfo) commOf;\n    \n    constructor() public{}\n\n\n    //保存\n    function saveinfo(string memory flightInfo ,string memory time,string memory number) public{\n        commOf[0].flightInfo = flightInfo;\n        commOf[0].time=time;\n        commOf[0].number=number;\n        commOf[0].status=1;\n    }\n\n    //清空\n    function deleteinfo() public{\n        commOf[0].flightInfo = \"\";\n        commOf[0].time=\"\";\n        commOf[0].number=\"\";\n        commOf[0].status=0;\n    }\n \n    //查询数据\n    function selectAll() public view returns (string memory flightInfo ,string memory time,string memory number,uint8 status,uint id){\n        flightInfo=commOf[0].flightInfo;\n        time=commOf[0].time;\n        number=commOf[0].number;\n        status=commOf[0].status;  \n        id=0;\n\n        return (flightInfo,time,number,status,id);\n    }\n\n    //审核\n    function update() public{\n        commOf[0].status=2;\n    }\n\n}\n\n",
  "sourcePath": "/Users/yongyang/work/project/contract-insurance-demo/contracts/Insurance.sol",
  "compiler": {
    "name": "solc",
    "version": "0.5.16+commit.9c3226ce.Emscripten.clang"
  },
  "schemaVersion": "3.2.0",
  "updatedAt": "2020-07-13T07:43:20.329Z",
  "networkType": "ethereum",
  "devdoc": {
    "methods": {
      "transferOwnership(address)": {
        "params": {
          "newOwner": "address 新的管理员帐户地址"
        }
      }
    }
  },
  "userdoc": {
    "methods": {
      "transferOwnership(address)": {
        "notice": "合约的所有者指派一个新的管理员"
      }
    }
  }
}